{
  "contractName": "TestPatient",
  "abi": [
    {
      "constant": true,
      "inputs": [
        {
          "name": "pat_id",
          "type": "uint256"
        }
      ],
      "name": "getPrescriptionCount",
      "outputs": [
        {
          "name": "res",
          "type": "uint256"
        }
      ],
      "payable": false,
      "stateMutability": "view",
      "type": "function"
    },
    {
      "constant": true,
      "inputs": [
        {
          "name": "",
          "type": "uint256"
        }
      ],
      "name": "prescriptionsCount",
      "outputs": [
        {
          "name": "",
          "type": "uint256"
        }
      ],
      "payable": false,
      "stateMutability": "view",
      "type": "function"
    },
    {
      "constant": false,
      "inputs": [
        {
          "name": "pat_id",
          "type": "uint256"
        },
        {
          "name": "_hash_function",
          "type": "uint8"
        },
        {
          "name": "_size",
          "type": "uint8"
        },
        {
          "name": "_hash",
          "type": "bytes32"
        }
      ],
      "name": "addPrescription",
      "outputs": [],
      "payable": false,
      "stateMutability": "nonpayable",
      "type": "function"
    },
    {
      "constant": true,
      "inputs": [
        {
          "name": "pat_id",
          "type": "uint256"
        },
        {
          "name": "pre_id",
          "type": "uint256"
        }
      ],
      "name": "getPrescription",
      "outputs": [
        {
          "name": "a",
          "type": "uint8"
        },
        {
          "name": "b",
          "type": "uint8"
        },
        {
          "name": "c",
          "type": "bytes32"
        }
      ],
      "payable": false,
      "stateMutability": "view",
      "type": "function"
    },
    {
      "constant": false,
      "inputs": [],
      "name": "testAddPatient",
      "outputs": [],
      "payable": false,
      "stateMutability": "nonpayable",
      "type": "function"
    }
  ],
  "bytecode": "0x608060405234801561001057600080fd5b50610504806100206000396000f3fe60806040526004361061006d576000357c0100000000000000000000000000000000000000000000000000000000900463ffffffff1680631d54f3b7146100725780632afbb8cc146100c157806335591a1214610110578063b9eb304b1461016f578063ff2f7e93146101e2575b600080fd5b34801561007e57600080fd5b506100ab6004803603602081101561009557600080fd5b81019080803590602001909291905050506101f9565b6040518082815260200191505060405180910390f35b3480156100cd57600080fd5b506100fa600480360360208110156100e457600080fd5b8101908080359060200190929190505050610216565b6040518082815260200191505060405180910390f35b34801561011c57600080fd5b5061016d6004803603608081101561013357600080fd5b8101908080359060200190929190803560ff169060200190929190803560ff1690602001909291908035906020019092919050505061022e565b005b34801561017b57600080fd5b506101b26004803603604081101561019257600080fd5b810190808035906020019092919080359060200190929190505050610340565b604051808460ff1660ff1681526020018360ff1660ff168152602001828152602001935050505060405180910390f35b3480156101ee57600080fd5b506101f76103ea565b005b600060016000838152602001908152602001600020549050919050565b60016020528060005260406000206000915090505481565b60006001600086815260200190815260200160002054905080806001019150506102566104ad565b8281604001818152505084816000019060ff16908160ff168152505083816020019060ff16908160ff168152505060408051908101604052808381526020018281525060008088815260200190815260200160002060008481526020019081526020016000206000820151816000015560208201518160010160008201518160000160006101000a81548160ff021916908360ff16021790555060208201518160000160016101000a81548160ff021916908360ff160217905550604082015181600101555050905050816001600088815260200190815260200160002081905550505050505050565b6000806000806000868152602001908152602001600020600085815260200190815260200160002060010160000160009054906101000a900460ff16600080878152602001908152602001600020600086815260200190815260200160002060010160000160019054906101000a900460ff166000808881526020019081526020016000206000878152602001908152602001600020600101600101549250925092509250925092565b60006001905060006012905060006020905060007f74657374000000000000000000000000000000000000000000000000000000006001029050600080600080610433886101f9565b90506104418888888861022e565b61044a886101f9565b6001820114151561045757fe5b6104648860018301610340565b8260ff1692508160ff1691508094508195508296505050508660ff168414151561048a57fe5b8560ff168314151561049857fe5b84821415156104a357fe5b5050505050505050565b606060405190810160405280600060ff168152602001600060ff16815260200160008019168152509056fea165627a7a723058207199db94efd2fbe8c8849befaf1e06d99f68da1935a04ed87528db9ec65b40eb0029",
  "source": "pragma solidity >=0.4.25;\r\n\r\nimport \"./Patient.sol\";\r\n\r\ncontract TestPatient is Patient{\r\n\tfunction testAddPatient() public{\r\n\t\tuint pat_id = 1;\r\n\t\tuint8 hash_func = 18;\r\n\t\tuint8 size = 32;\r\n\t\tbytes32 hash =  0x7465737400000000000000000000000000000000000000000000000000000000;//need to insert\r\n\t\tuint tmphash_function ;\r\n\t\tuint tmpsize;\r\n\t\tbytes32 tmphash ;\r\n\t\tuint prc_init = getPrescriptionCount (pat_id);//Initial prescription count \r\n\t\taddPrescription(pat_id,hash_func,size,hash);\r\n\t\tassert(prc_init+1 == getPrescriptionCount(pat_id));\r\n\t\t(tmphash_function,tmpsize,tmphash) = getPrescription(pat_id,prc_init+1); \r\n\t\tassert(tmphash_function == hash_func);\r\n\t\tassert(tmpsize == size);\r\n\t\tassert(tmphash == hash);\r\n\r\n\t}\r\n}",
  "sourcePath": "E:/github/Decentralized-Healthcare/contracts/Test_Patient.sol",
  "compiler": {
    "name": "solc",
    "version": "0.5.0+commit.1d4f565a.Emscripten.clang"
  },
  "schemaVersion": "3.0.6",
  "updatedAt": "2019-04-13T12:30:20.414Z",
  "devdoc": {
    "methods": {}
  },
  "userdoc": {
    "methods": {}
  }
}