{
  "contractName": "Patient",
  "abi": [
    {
      "constant": true,
      "inputs": [
        {
          "name": "",
          "type": "uint256"
        }
      ],
      "name": "prescriptionsCount",
      "outputs": [
        {
          "name": "",
          "type": "uint256"
        }
      ],
      "payable": false,
      "stateMutability": "view",
      "type": "function",
      "signature": "0x2afbb8cc"
    },
    {
      "constant": false,
      "inputs": [
        {
          "name": "pat_id",
          "type": "uint256"
        },
        {
          "name": "_hash_function",
          "type": "uint8"
        },
        {
          "name": "_size",
          "type": "uint8"
        },
        {
          "name": "_hash",
          "type": "bytes32"
        }
      ],
      "name": "addPrescription",
      "outputs": [],
      "payable": false,
      "stateMutability": "nonpayable",
      "type": "function",
      "signature": "0x35591a12"
    },
    {
      "constant": true,
      "inputs": [
        {
          "name": "pat_id",
          "type": "uint256"
        },
        {
          "name": "pre_id",
          "type": "uint256"
        }
      ],
      "name": "getPrescription",
      "outputs": [
        {
          "name": "a",
          "type": "uint8"
        },
        {
          "name": "b",
          "type": "uint8"
        },
        {
          "name": "c",
          "type": "bytes32"
        }
      ],
      "payable": false,
      "stateMutability": "view",
      "type": "function",
      "signature": "0xb9eb304b"
    },
    {
      "constant": true,
      "inputs": [
        {
          "name": "pat_id",
          "type": "uint256"
        }
      ],
      "name": "getPrescriptionCount",
      "outputs": [
        {
          "name": "res",
          "type": "uint256"
        }
      ],
      "payable": false,
      "stateMutability": "view",
      "type": "function",
      "signature": "0x1d54f3b7"
    }
  ],
  "bytecode": "0x608060405234801561001057600080fd5b5061041f806100206000396000f3fe608060405260043610610062576000357c0100000000000000000000000000000000000000000000000000000000900463ffffffff1680631d54f3b7146100675780632afbb8cc146100b657806335591a1214610105578063b9eb304b14610164575b600080fd5b34801561007357600080fd5b506100a06004803603602081101561008a57600080fd5b81019080803590602001909291905050506101d7565b6040518082815260200191505060405180910390f35b3480156100c257600080fd5b506100ef600480360360208110156100d957600080fd5b81019080803590602001909291905050506101f4565b6040518082815260200191505060405180910390f35b34801561011157600080fd5b506101626004803603608081101561012857600080fd5b8101908080359060200190929190803560ff169060200190929190803560ff1690602001909291908035906020019092919050505061020c565b005b34801561017057600080fd5b506101a76004803603604081101561018757600080fd5b81019080803590602001909291908035906020019092919050505061031e565b604051808460ff1660ff1681526020018360ff1660ff168152602001828152602001935050505060405180910390f35b600060016000838152602001908152602001600020549050919050565b60016020528060005260406000206000915090505481565b60006001600086815260200190815260200160002054905080806001019150506102346103c8565b8281604001818152505084816000019060ff16908160ff168152505083816020019060ff16908160ff168152505060408051908101604052808381526020018281525060008088815260200190815260200160002060008481526020019081526020016000206000820151816000015560208201518160010160008201518160000160006101000a81548160ff021916908360ff16021790555060208201518160000160016101000a81548160ff021916908360ff160217905550604082015181600101555050905050816001600088815260200190815260200160002081905550505050505050565b6000806000806000868152602001908152602001600020600085815260200190815260200160002060010160000160009054906101000a900460ff16600080878152602001908152602001600020600086815260200190815260200160002060010160000160019054906101000a900460ff166000808881526020019081526020016000206000878152602001908152602001600020600101600101549250925092509250925092565b606060405190810160405280600060ff168152602001600060ff16815260200160008019168152509056fea165627a7a7230582069364050f1f29d2c880782e4fc4d2634959027f756429a2227925d972bf36b670029",
  "source": "pragma solidity ^0.5.0;\r\n//pragma experimental ABIEncoderV2;\r\n\r\ncontract Patient{\r\n\t//Multihash structure to store ipfs hash link given below\r\n\t//https://ethereum.stackexchange.com/questions/17094/how-to-store-ipfs-hash-using-bytes\r\n\tstruct Multihash {\r\n  \t\tuint8 hash_function;\r\n  \t\tuint8 size;\r\n  \t\tbytes32 hash;\r\n\t}\r\n\tstruct Prescription{\r\n\t\tuint id;\r\n\t\tMultihash dataHash; \r\n\t}\r\n\r\n\tmapping(uint => mapping(uint => Prescription)) internal prescriptions;\r\n\t// prescriptions[patient id][prescription id] contains IPFS hash\r\n\r\n\tmapping(uint => uint) public prescriptionsCount;\r\n\t//prescriptionsCount[patient_id] contains number of prescription of a given patient\r\n\r\n\tfunction addPrescription (uint pat_id,uint8 _hash_function,uint8 _size,bytes32 _hash) public {\r\n\t\t//the stored data \r\n\r\n\t\t//require (approvedDocs[msg.sender]);\r\n\t\tuint prc = prescriptionsCount[pat_id];\r\n\t\tprc++;\r\n\t\tMultihash memory tmpHash;\r\n\t\ttmpHash.hash = _hash;\r\n\t\ttmpHash.hash_function = _hash_function;\r\n\t\ttmpHash.size = _size;\r\n\t\tprescriptions[pat_id][prc] = Prescription(prc,tmpHash);\r\n\t\tprescriptionsCount[pat_id] = prc;\r\n\r\n\t}\r\n\r\n\t function getPrescription(uint pat_id,uint pre_id) public view returns (uint8 a, uint8 b, bytes32 c) {\r\n\t     \r\n\t    return (prescriptions[pat_id][pre_id].dataHash.hash_function,prescriptions[pat_id][pre_id].dataHash.size, prescriptions[pat_id][pre_id].dataHash.hash);\r\n\t }\r\n\t \r\n\t function getPrescriptionCount (uint pat_id) public view returns(uint res) {\r\n\t \treturn prescriptionsCount[pat_id];\r\n\t }\r\n\t \r\n\r\n}\r\n",
  "sourcePath": "E:\\Healthcare2\\contracts\\Patient.sol",
  "compiler": {
    "name": "solc",
    "version": "0.5.0+commit.1d4f565a.Emscripten.clang"
  },
  "schemaVersion": "3.0.6",
  "updatedAt": "2019-04-12T09:30:21.565Z",
  "devdoc": {
    "methods": {}
  },
  "userdoc": {
    "methods": {}
  }
}